:020000040000FA
:100000009094002099020000672200000105000082
:100010005F220000F90300007D3B000000000000AB
:10002000000000000000000000000000B52D0000EE
:10003000C9160000000000004F040000EB32000071
:10004000791700008917000099170000A917000010
:10005000B9170000C9170000D9170000E917000000
:10006000F9170000091800001918000029180000ED
:1000700039180000491800005918000069180000DC
:10008000791800008918000099180000A9180000CC
:10009000B9180000C9180000D9180000E9180000BC
:1000A000F9180000091900001919000029190000A9
:1000B0003919000049190000591900006919000098
:1000C000791900008D190000A1190000B519000070
:1000D000C9190000DD190000F1190000051A00001F
:1000E000191A00002D1A0000411A0000551A0000CC
:1000F000691A00007D1A0000911A0000A51A00007C
:10010000B91A0000CD1A0000E11A0000F51A00002B
:10011000091B00001D1B0000311B0000451B0000D7
:10012000591B00006D1B0000811B0000951B000087
:10013000A91B0000BD1B0000D11B0000E51B000037
:10014000F91B00000D1C0000211C0000351C0000E4
:10015000491C00005D1C0000711C0000851C000093
:10016000991C0000AD1C0000C11C0000D51C000043
:10017000E91C0000FD1C0000111D0000251D0000F1
:10018000391D00004D1D0000611D0000751D00009F
:10019000891D00009D1D0000B11D0000C51D00004F
:1001A000D91D0000ED1D0000011E0000151E0000FD
:1001B000291E00003D1E0000511E0000651E0000AB
:1001C000791E00008D1E0000A11E0000B51E00005B
:1001D000C91E0000DD1E0000F11E0000051F00000A
:1001E000191F00002D1F0000411F0000551F0000B7
:1001F000691F00007D1F0000911F0000A51F000067
:10020000B91F0000CD1F0000E11F0000F51F000016
:10021000092000001D2000003120000045200000C2
:10022000592000006D200000812000009520000072
:10023000A9200000BD200000D1200000E520000022
:10024000DB020000DB020000DB020000DB0200003A
:10025000DB020000DB020000DB020000DB0200002A
:10026000DB020000DB020000DB020000DB0200001A
:10027000DB020000DB020000DB020000DB0200000A
:10028000DFF810D000F0E8FB00480047D30A000078
:10029000AFF300809094002010484FF07701016088
:1002A0000F484FF0770101600E484FF4885101600C
:1002B0000A484FF07601016009484FF0760101606D
:1002C0000948804709480047FEE7FEE7FEE7FEE7EA
:1002D000FEE7FEE7FEE7FEE7FEE7FEE7040805406F
:1002E0000C080540000805409D3300008102000015
:1002F0002DE9F05F0546002092469B46884606465B
:10030000814640241BE0284641464746224600F0ED
:100310001DFB53465A46C01A914110D31146184648
:10032000224600F016F82D1A67EB01084F462246C8
:100330000120002100F00DF817EB00094E41201EAE
:10034000A4F10104DFDC484631462A464346BDE8B5
:10035000F09F202A04DB203A00FA02F100207047C7
:100360009140C2F1200320FA03F3194390407047F3
:10037000202A06DBCB17203A41FA02F043EAE07369
:1003800006E041FA02F3D040C2F120029140084356
:100390001946704710B5431A934209D2831888183A
:1003A00003E010F8011D03F8011D521EF9D210BD23
:1003B00040EA01039B0703D009E008C9121F08C0E7
:1003C000042AFAD203E011F8013B00F8013B521E67
:1003D000F9D210BDD2B201E000F8012B491EFBD2C8
:1003E00070470022F6E710B513460A460446194640
:1003F000FFF7F0FF204610BD10B5AFF3008010BD31
:10040000FFFFFFFFFFFEFFFFFFFFFFFFFFFFFFFFFD
:10041000FFFFFFFFFFFFFFFFFFFFFFFFFFFFFFFFEC
:10042000EFF3108072B6704780F310887047424A2D
:100430001368012B04D04FF0010313603F4A106092
:100440003F4A11603F484FF0805101607047EFF321
:10045000108272B63848016851B34FF00001016054
:100460003648016891B1EFF309811EF0100F08BF03
:1004700021ED108B21E9F00F4FF000041EF0100F5A
:1004800008BF012441F8044D006801602C49096847
:10049000096808C9B1E8F00F002B18BFB1EC108B48
:1004A00081F309884EF0100E002B18BF2EF0100EAD
:1004B00082F310884EF0040E704721490860EFF374
:1004C000148222F0040282F314881C494FF00000C9
:1004D000086019494FF0010008601B481B49D0F81B
:1004E000002041EA0201016016484FF0805101608E
:1004F00017480068006880F3088861B662B67047E4
:100500001EF0040F0CBFEFF30880EFF3098020E921
:10051000F00F40F804ED40F804ED1EF0040F0CBF9E
:1005200080F3088880F3098800B522F061FA5DF84D
:1005300004EB4EF0040E70472480FF1F1C80FF1F49
:100540002080FF1F04ED00E020ED00E00000FFFF31
:1005500008ED00E0421E12F8013F002BFBD111F81C
:10056000013B02F8013B002BF9D1704710B504465E
:1005700004E00B7800F8013B03B1491C521EF8D28D
:10058000204610BD421C10F8011B0029FBD1801A27
:10059000704710B5002200E0521C835C8C5CA342C3
:1005A00001D1002BF8D1D8B2E1B2401A10BD0346F8
:1005B00011F8012B00F8012B002AF9D118467047D9
:1005C00030B505460020034600E05B1C934205D28F
:1005D000EC5CC85C201A01D1002CF6D130BD2DE9AD
:1005E000FE4F804681EA0300C00F0C46009021F0C8
:1005F000004123F00045B8EB0200A94105D2404676
:10060000214690461C460B46024623F0004010430C
:1006100047D0270DC7F30A00C3F30A510290401ACE
:10062000019040286BDAC3F3130040F4801B00985C
:10063000924620B10023D2EB030A63EB0B0B019827
:100640005946C0F140025046FFF783FE06460D466C
:1006500050465946019AFFF78BFE10EB08006141A6
:10066000002487EA115284EAE7731A4340D0009AC3
:1006700062B3019A012A4FEA075215DC001B61EBB5
:1006800002014FF0004202EA0752CDE90042001C8D
:1006900041F5801132462B4600F077F903B0BDE8F2
:1006A000F08F40462146F9E7001B61EB0201001C78
:1006B00041F5801300185B412018A2F5001747EBA5
:1006C000030140EAD570B6196D4111E06D084FEA9B
:1006D000360645EAC0754FEA0752001B61EB02017E
:1006E000001C41F5801149084FEA300000195141C2
:1006F00032462B4603B0BDE8F04F00F037B9009802
:10070000012240000023D0EB020263EBE07300986B
:1007100021464FEAE074B8EB000061EB0401E9E721
:1007200083F000435BE781F0004158E72DE9FE4F7D
:1007300081EA030404F0004421F0004100944FF0EA
:10074000000B23F0004350EA01045ED052EA030498
:100750005BD0C3F30A54C1F30A552C44A4F2F3341A
:100760000194A0FB0254C1F3130141F48011C3F3BF
:10077000130343F4801301FB024400FB034E840A7D
:10078000970A44EA815447EA8357A4FB0768029515
:100790008D0A05FB07854FEA932C04FB0C542705B3
:1007A000029D4FEA065847EA1637B5EB08056EEB8F
:1007B000070C870E920E47EA811742EA8312A7FBC5
:1007C0000201B6EB0B0164EB00042B0D43EA0C3382
:1007D0005E1844EB1C50DA465146E7FB0201C5F3B4
:1007E00013044FEA0B3343EA14534FEA0432019CDB
:1007F00043EA0603A4F10C040294009CCDE900B482
:1008000000F0C3F803B0BDE8F08F00200146F9E71F
:100810002DE9F04D81EA030404F0004B21F000457E
:1008200014464FF0000A23F0004150EA050220D0A0
:1008300054EA01021DD0C5F30A570246C5F313035B
:10084000C1F31300C1F30A5640F4801543F480133A
:10085000A7EB0608101BD64608F2FD3873EB05001F
:1008600002D308F1010801E092185B41B8F1000FD2
:1008700003DA00200146BDE8F08D00204FF480111E
:10088000064684460EE0171B73EB050705D3121BC3
:1008900063EB050306434CEA010C49084FEA3000BC
:1008A00092185B4150EA0107EDD152EA030012D0E1
:1008B00082EA040083EA0501084305D0101BAB411E
:1008C00006D20122002306E000224FF0004302E09E
:1008D0006FF0010253101AEB06004CEB085110EBBD
:1008E0000A0041EB0B01BDE8F04D00F03FB80000FD
:1008F00030B5041E71F1000404DB4FF000444042A7
:1009000064EB0101141E73F1000405DB1C464FF07B
:100910000043524263EB0403994208BF904230BD4A
:1009200030B50B46014600202022012409E021FABF
:1009300002F59D4205D303FA02F5491B04FA02F5BC
:100940002844151EA2F10102F1DC30BD202A04DB8F
:10095000203A21FA02F00021704721FA02F3D04038
:10096000C2F12002914008431946704710B5141E89
:1009700073F1000408DA401C41F1000192185B4158
:100980001A4301D120F0010010BD2DE9F04D92462F
:100990009B4611B1B1FA81F202E0B0FA80F2203246
:1009A0009046FFF7D6FC04460F4640EA0A0041EAAB
:1009B0000B0153465A46084313D0114653EA01002F
:1009C00019D0C8F140025046FFF7C0FF05460E4659
:1009D000504659464246FFF7BCFC084305D001206B
:1009E00004E020463946BDE8F08D0020054346EA84
:1009F000E0762C4337430A986305E40AA0EB08002D
:100A00000022FD0A44EA47540A3002D5002001467C
:100A1000E9E7010510196941DDE908450019694157
:100A2000BDE8F04DA2E7C1F30A52C1F3130140F251
:100A3000FF3341F480119A4202DA002001467047E8
:100A400040F233439A42A2F2334202DC5242FFF7B1
:100A50007DBFFFF77EBC0000064C074D06E0E06856
:100A600040F0010394E8070098471034AC42F6D3F5
:100A7000FFF70AFCF0B4020010B5020070B58C1844
:100A800010F8015B15F0070301D110F8013B2A11A2
:100A900006D110F8012B03E010F8016B01F8016B8F
:100AA0005B1EF9D12B0705D40023521E0DD401F88B
:100AB000013BFAE710F8013BCB1A921C03E013F854
:100AC000015B01F8015B521EF9D5A142D8D3002089
:100AD00070BD10B523F026F9002010BDF0B5002838
:100AE0005ED0304A92F826102F4C01F007032F4FAA
:100AF00025684FF40041052B0AD2DFE803F0030517
:100B000007050700056021E007601FE001601DE0A8
:100B1000D2F80011C1F3C016D2F800110B0FD2F8B1
:100B20000011C1F30824D2F8001101F01F014EB1E9
:100B300066B1491CB5FBF1F1641C61435B1CB1FB60
:100B4000F3F1E3E7491CB7FBF1F1F5E70168136A3C
:100B5000C3F3026321FA03F34360136AC3F302533E
:100B600021FA03F38360136A03F0070321FA03F306
:100B7000C360136AC3F3021321FA03F30361136A18
:100B8000C3F3022321FA03F34361136AC3F302336D
:100B900021FA03F38361126AC2F30242D140C161B8
:100BA000F0BD0000004005400080FF1F00127A00E9
:100BB00010B504000CD0012C0AD0022C08D0032C54
:100BC00006D0042C04D040F23F6111A000F04AFD91
:100BD000174844B1012C0BD0022C0ED0032C11D09D
:100BE00090F8410001E090F83C00C0F3000010BD17
:100BF00090F83C00C0F3C00010BD90F83C00C0F37A
:100C0000401010BD90F83C00C0F3801010BD0000F3
:100C10002E2E5C2E2E5C6472697665725C73726334
:100C20005C68633332663436305F636C6B2E63000E
:100C300000400540F8B506004FF000000446009063
:100C400006D0012E04D040F235311EA000F00AFD7E
:100C5000244DB5F8FE034AF201510843A5F8FE03FE
:100C600056B195F82A0020F0010085F82A000924E1
:100C70004FF48056009816E095F8260000F0070023
:100C8000052806D095F82A0040F0010085F82A00D2
:100C90000BE0012409E00220FFF78AFF01280ED0B3
:100CA0000098401C0090B042F5D3B5F8FE0320F048
:100CB000010040F42540A5F8FE032046F8BD0024BD
:100CC000F3E700002E2E5C2E2E5C6472697665724E
:100CD0005C7372635C68633332663436305F636CB6
:100CE0006B2E63000040054070B504007ED0206884
:100CF000801E0E2804D94FF4417142A000F0B2FCCE
:100D00006068401E0F2804D940F205313DA000F074
:100D1000A9FCA068801E0E2804D940F2063139A033
:100D200000F0A0FCE0681438B0F5E67F04D940F28A
:100D3000073134A000F096FC2069401E172804D922
:100D40004FF442712FA000F08DFC364DD5F8000114
:100D5000000601D4344801E0344800682169E6689F
:100D6000B0FBF1F03249464308443249884204D985
:100D700040F20F3123A000F075FC2F482E4930447B
:100D80004942884204D94FF444711EA000F06AFC25
:100D9000B5F8FE034AF201510843A5F8FE03207896
:100DA000D5F80011401E60F31F71C5F800112079BD
:100DB000D5F80011401E60F31B61C5F80011207AC0
:100DC000D5F80011401E60F31751C5F80011A08935
:100DD000D5F80011401E60F31021C5F80011207CE9
:100DE000D5F80011401E60F3040100E009E0C5F8E9
:100DF0000011B5F8FE0320F0010040F42540A5F8ED
:100E0000FE0370BD2E2E5C2E2E5C647269766572B8
:100E10005C7372635C68633332663436305F636C74
:100E20006B2E63000040054000127A000080FF1F17
:100E3000C0BDF0FFC0F35E0100E4B1F110B50400E5
:100E400006D0012C04D040F2E5210DA000F00AFCF0
:100E50001349B1F8FE034AF201521043A1F8FE0310
:100E6000D1F8000164F3C710C1F80001B1F8FE0326
:100E700020F0010040F42540A1F8FE0310BD000061
:100E80002E2E5C2E2E5C6472697665725C737263C2
:100E90005C68633332663436305F636C6B2E63009C
:100EA0000040054070B586B02E4D4FF0000604009E
:100EB00000962868019068680290A8680390E86826
:100EC000049007D0601E042804D94FF4777126A03F
:100ED00000F0C8FB2C4828612C4A92F826005115D6
:100EE00000F00700052801D0052C0AD12848286009
:100EF000C0126860A860E8600098401C00908842BA
:100F0000FAD3B2F8FE034AF201531843A2F8FE03E3
:100F100012F8260F64F302001070B2F8D80320F024
:100F2000010040F42540A2F8D80300960098401C28
:100F300000908842FAD3019828600298686003986C
:100F4000A8600498E8601048401E28610096009848
:100F5000401C00908842FAD306B0BDE8704002F011
:100F6000D1B90000008004402E2E5C2E2E5C6472ED
:100F7000697665725C7372635C68633332663436BB
:100F8000305F636C6B2E63000100A5A50040054037
:100F9000EEFAFFFFF0B585B0424D4FF000060400B9
:100FA00000962868019068680290A8680390E86835
:100FB00004903D48286173D02178E27891421BD893
:100FC0006379994218D8A079814215D8A1789142C5
:100FD00012D8994210D82279111A032911D0022966
:100FE0000FD001290DD082420BD0801A012808D0E1
:100FF000022806D0032804D040F23B412BA000F089
:1010000031FB324A92F82600511500F007000528FE
:101010000AD12F482860C0126860A860E860009874
:10102000401C00908842FAD3B2F8FE034AF2015302
:101030001843A2F8FE03A078E378677940EA03102A
:1010400023791B0243EA07331843A37940EA03409C
:10105000637840EA0353207843EA006343EA007070
:101060001062B2F8FE0320F0010040F42540A2F81F
:10107000FE0300960098401C00908842FAD3019825
:101080002860029868600398A8600498E8600648A1
:10109000401E286100960098401C00908842FAD3B8
:1010A00005B0F0BD008004400100A5A52E2E5C2EE9
:1010B0002E5C6472697665725C7372635C6863331C
:1010C00032663436305F636C6B2E6300004005403F
:1010D000EEFAFFFFF8B506004FF00000044600905E
:1010E0000BD0012E09D040F2811124A000F0BAFAF1
:1010F00040F2831121A000F0B5FA284DB5F8FE03A7
:101100004AF201510843A5F8FE0356B195F83200A2
:1011100020F0010085F8320009244FF48056009831
:101120001EE095F8260000F0070003280ED0D5F841
:101130000001000603D495F82A00C00706D095F8F0
:10114000320040F0010085F832000BE0012409E094
:101150000120FFF72DFD01280ED00098401C0090C3
:10116000B042F5D3B5F8FE0320F0010040F425406D
:10117000A5F8FE032046F8BD0024F3E72E2E5C2ED2
:101180002E5C6472697665725C7372635C6863334B
:1011900032663436305F636C6B2E6300004005406E
:1011A00010B500281FD0104AB2F8FE134AF20153BE
:1011B0001943A2F8FE130D4904780B7864F3C713A2
:1011C0000B7044780B7864F386130B70837808787F
:1011D00063F305100870B2F8FE0320F0010040F43C
:1011E0002540A2F8FE0310BD004005401044054014
:1011F00070B50646604814460D46864207D05F48E3
:10120000864204D040F2D1715DA000F02BFA55B1B6
:10121000012D08D0022D06D0032D04D040F2D2714A
:1012200057A000F01FFA207840B1012806D002280C
:1012300004D040F2D37152A000F014FA607840B1AB
:10124000012806D0022804D040F2D4714CA000F04E
:1012500009FAA07830B1012804D040F2D57148A035
:1012600000F000FAE07830B1012804D040F2D671E5
:1012700043A000F0F7F9207930B1012804D040F202
:10128000D7713FA000F0EEF9607930B1012804D0A9
:101290004FF4FB613AA000F0E5F9A07940B10128D4
:1012A00006D0022804D040F2D97135A000F0DAF956
:1012B000E07930B1012804D040F2DA7130A000F0BA
:1012C000D1F9207A30B1012804D040F2DB712CA092
:1012D00000F0C8F9607A30B1012804D040F2DC7126
:1012E00027A000F0BFF906EB8510C16D227821F030
:1012F00003011143C165C16D627821F00C0141EA1F
:101300008201C165C16DA27821F0100141EA02118C
:10131000C165C16DE27821F0200141EA4211C16549
:10132000C16D227921F0400141EA8211C165C16D90
:10133000627921F0800141EAC211C165C16DA279D3
:1013400021F4407141EA0221C165C16DE27921F4C5
:10135000806141EA8221C165C16D227A21F4006178
:1013600041EAC221C165C16D627A21F4805141EA2E
:101370000231C16570BD00000030054000340540F9
:101380002E2E5C2E2E5C6472697665725C737263BD
:101390005C68633332663436305F646D61632E633C
:1013A000000000002DE9F0410546264800271646BA
:1013B0000C46854207D02448854204D040F24E2195
:1013C00022A000F04FF954B1012C08D0022C06D015
:1013D000032C04D040F24F211CA000F043F956B179
:1013E000012E08D0022E06D0032E04D04FF4147123
:1013F00016A000F037F92CB1012C03D0022C01D03B
:10140000032C0BD10120A04066B101211034A14072
:10141000012E0BD0022E0DD0032E0FD004273846FC
:10142000BDE8F081696901436961F8E768690843CB
:101430006861F4E7A9690143A961F0E7A869084375
:10144000A861ECE700300540003405402E2E5C2EEC
:101450002E5C6472697665725C7372635C68633378
:1014600032663436305F646D61632E6300000000C5
:1014700070B504460C480D46844207D00B488442A0
:1014800004D04FF4C1710AA000F0ECF835B1012D81
:1014900004D040F2831106A000F0E4F8206865F360
:1014A0000000206070BD00000030054000340540A1
:1014B0002E2E5C2E2E5C6472697665725C7372638C
:1014C0005C68633332663436305F646D61632E630B
:1014D0000000000070B506463B4814460D468642A3
:1014E00007D03A48864204D040F6120138A000F0F6
:1014F000B9F855B1012D08D0022D06D0032D04D026
:1015000040F6130132A000F0ADF82088800A04D024
:1015100040F614012EA000F0A5F8A089800A04D09E
:1015200040F616012AA000F09DF8E089800A04D058
:1015300040F6170126A000F095F801213046FFF78C
:1015400097FF06EB8513D86D20F48050D86560684E
:101550001864A0685864986C21886FF309000843E8
:1015600098646188986C61F31F409864D86CA18975
:101570006FF309000843D864D86C1E490840E1891C
:1015800040EA0140D864186D61696FF313000843A5
:101590001865218B186D61F31F501865586DE1694E
:1015A0006FF3130008435865218C586D61F31F5089
:1015B00058652069986504F1240229463046BDE843
:1015C0007040FFF715BE00000030054000340540B4
:1015D0002E2E5C2E2E5C6472697665725C7372636B
:1015E0005C68633332663436305F646D61632E63EA
:1015F00000000000FFFF00FC2DE9F0410D4E0E4FF2
:10160000154688460446B04206D0BC4204D040F29B
:1016100047710AA000F026F81149B44201EB880096
:1016200003D1C0F81458BDE8F081BC42FBD1C0F82A
:101630002458F8E700300540003405402E2E5C2E7B
:101640002E5C6472697665725C7372635C68633386
:1016500032663436305F646D61632E6300000000D3
:101660000000014010B50A46014602A002F0CEFA81
:10167000FEE7000057726F6E6720706172616D65E2
:10168000746572732076616C75653A2066696C6565
:10169000202573206F6E206C696E652025640D0A0D
:1016A00000000000074908B5096842F21072B1FB5A
:1016B000F2F304E0009300994A1E0092FBD2401E10
:1016C000F8D208BD0480FF1F10B5AFF3008010BD35
:1016D00004480168012903D143F21021016001602F
:1016E000704700000004014010B5040021D0012C17
:1016F0001FD0022C1DD0032C1BD0042C19D0052C7C
:1017000017D0062C15D0072C13D0082C11D0092C7B
:101710000FD00A2C0DD00B2C0BD00C2C09D00D2C7B
:1017200007D00E2C05D00F2C03D0DA2104A0FFF730
:1017300099FF0B48016864F30711016010BD0000B8
:101740002E2E5C2E2E5C6472697665725C737263F9
:101750005C68633332663436305F65666D2E6300D5
:1017600008040140034840F22311016043F21021B4
:10177000016070470004014002480068002800D062
:1017800000477047A8C2FF1F02484068002800D0E9
:1017900000477047A8C2FF1F02488068002800D099
:1017A00000477047A8C2FF1F0248C068002800D049
:1017B00000477047A8C2FF1F02480069002800D0F8
:1017C00000477047A8C2FF1F02484069002800D0A8
:1017D00000477047A8C2FF1F02488069002800D058
:1017E00000477047A8C2FF1F0248C069002800D008
:1017F00000477047A8C2FF1F0248006A002800D0B7
:1018000000477047A8C2FF1F0248406A002800D066
:1018100000477047A8C2FF1F0248806A002800D016
:1018200000477047A8C2FF1F0248C06A002800D0C6
:1018300000477047A8C2FF1F0248006B002800D075
:1018400000477047A8C2FF1F0248406B002800D025
:1018500000477047A8C2FF1F0248806B002800D0D5
:1018600000477047A8C2FF1F0248C06B002800D085
:1018700000477047A8C2FF1F0248006C002800D034
:1018800000477047A8C2FF1F0248406C002800D0E4
:1018900000477047A8C2FF1F0248806C002800D094
:1018A00000477047A8C2FF1F0248C06C002800D044
:1018B00000477047A8C2FF1F0248006D002800D0F3
:1018C00000477047A8C2FF1F0248406D002800D0A3
:1018D00000477047A8C2FF1F0248806D002800D053
:1018E00000477047A8C2FF1F0248C06D002800D003
:1018F00000477047A8C2FF1F0248006E002800D0B2
:1019000000477047A8C2FF1F0248406E002800D061
:1019100000477047A8C2FF1F0248806E002800D011
:1019200000477047A8C2FF1F0248C06E002800D0C1
:1019300000477047A8C2FF1F0248006F002800D070
:1019400000477047A8C2FF1F0248406F002800D020
:1019500000477047A8C2FF1F0248806F002800D0D0
:1019600000477047A8C2FF1F0248C06F002800D080
:1019700000477047A8C2FF1F0348D0F88000002826
:1019800000D0004770470000A8C2FF1F0348D0F8EE
:101990008400002800D0004770470000A8C2FF1F45
:1019A0000348D0F88800002800D0004770470000A6
:1019B000A8C2FF1F0348D0F88C00002800D00047C1
:1019C00070470000A8C2FF1F0348D0F8900000280D
:1019D00000D0004770470000A8C2FF1F0348D0F89E
:1019E0009400002800D0004770470000A8C2FF1FE5
:1019F0000348D0F89800002800D000477047000046
:101A0000A8C2FF1F0348D0F89C00002800D0004760
:101A100070470000A8C2FF1F0348D0F8A0000028AC
:101A200000D0004770470000A8C2FF1F0348D0F84D
:101A3000A400002800D0004770470000A8C2FF1F84
:101A40000348D0F8A800002800D0004770470000E5
:101A5000A8C2FF1F0348D0F8AC00002800D0004700
:101A600070470000A8C2FF1F0348D0F8B00000284C
:101A700000D0004770470000A8C2FF1F0348D0F8FD
:101A8000B400002800D0004770470000A8C2FF1F24
:101A90000348D0F8B800002800D000477047000085
:101AA000A8C2FF1F0348D0F8BC00002800D00047A0
:101AB00070470000A8C2FF1F0348D0F8C0000028EC
:101AC00000D0004770470000A8C2FF1F0348D0F8AD
:101AD000C400002800D0004770470000A8C2FF1FC4
:101AE0000348D0F8C800002800D000477047000025
:101AF000A8C2FF1F0348D0F8CC00002800D0004740
:101B000070470000A8C2FF1F0348D0F8D00000288B
:101B100000D0004770470000A8C2FF1F0348D0F85C
:101B2000D400002800D0004770470000A8C2FF1F63
:101B30000348D0F8D800002800D0004770470000C4
:101B4000A8C2FF1F0348D0F8DC00002800D00047DF
:101B500070470000A8C2FF1F0348D0F8E00000282B
:101B600000D0004770470000A8C2FF1F0348D0F80C
:101B7000E400002800D0004770470000A8C2FF1F03
:101B80000348D0F8E800002800D000477047000064
:101B9000A8C2FF1F0348D0F8EC00002800D000477F
:101BA00070470000A8C2FF1F0348D0F8F0000028CB
:101BB00000D0004770470000A8C2FF1F0348D0F8BC
:101BC000F400002800D0004770470000A8C2FF1FA3
:101BD0000348D0F8F800002800D000477047000004
:101BE000A8C2FF1F0348D0F8FC00002800D000471F
:101BF00070470000A8C2FF1F0348D0F8000100286A
:101C000000D0004770470000A8C2FF1F0348D0F86B
:101C10000401002800D0004770470000A8C2FF1F41
:101C20000348D0F80801002800D0004770470000A2
:101C3000A8C2FF1F0348D0F80C01002800D00047BD
:101C400070470000A8C2FF1F0348D0F81001002809
:101C500000D0004770470000A8C2FF1F0348D0F81B
:101C60001401002800D0004770470000A8C2FF1FE1
:101C70000348D0F81801002800D000477047000042
:101C8000A8C2FF1F0348D0F81C01002800D000475D
:101C900070470000A8C2FF1F0348D0F820010028A9
:101CA00000D0004770470000A8C2FF1F0348D0F8CB
:101CB0002401002800D0004770470000A8C2FF1F81
:101CC0000348D0F82801002800D0004770470000E2
:101CD000A8C2FF1F0348D0F82C01002800D00047FD
:101CE00070470000A8C2FF1F0348D0F83001002849
:101CF00000D0004770470000A8C2FF1F0348D0F87B
:101D00003401002800D0004770470000A8C2FF1F20
:101D10000348D0F83801002800D000477047000081
:101D2000A8C2FF1F0348D0F83C01002800D000479C
:101D300070470000A8C2FF1F0348D0F840010028E8
:101D400000D0004770470000A8C2FF1F0348D0F82A
:101D50004401002800D0004770470000A8C2FF1FC0
:101D60000348D0F84801002800D000477047000021
:101D7000A8C2FF1F0348D0F84C01002800D000473C
:101D800070470000A8C2FF1F0348D0F85001002888
:101D900000D0004770470000A8C2FF1F0348D0F8DA
:101DA0005401002800D0004770470000A8C2FF1F60
:101DB0000348D0F85801002800D0004770470000C1
:101DC000A8C2FF1F0348D0F85C01002800D00047DC
:101DD00070470000A8C2FF1F0348D0F86001002828
:101DE00000D0004770470000A8C2FF1F0348D0F88A
:101DF0006401002800D0004770470000A8C2FF1F00
:101E00000348D0F86801002800D000477047000060
:101E1000A8C2FF1F0348D0F86C01002800D000477B
:101E200070470000A8C2FF1F0348D0F870010028C7
:101E300000D0004770470000A8C2FF1F0348D0F839
:101E40007401002800D0004770470000A8C2FF1F9F
:101E50000348D0F87801002800D000477047000000
:101E6000A8C2FF1F0348D0F87C01002800D000471B
:101E700070470000A8C2FF1F0348D0F88001002867
:101E800000D0004770470000A8C2FF1F0348D0F8E9
:101E90008401002800D0004770470000A8C2FF1F3F
:101EA0000348D0F88801002800D0004770470000A0
:101EB000A8C2FF1F0348D0F88C01002800D00047BB
:101EC00070470000A8C2FF1F0348D0F89001002807
:101ED00000D0004770470000A8C2FF1F0348D0F899
:101EE0009401002800D0004770470000A8C2FF1FDF
:101EF0000348D0F89801002800D000477047000040
:101F0000A8C2FF1F0348D0F89C01002800D000475A
:101F100070470000A8C2FF1F0348D0F8A0010028A6
:101F200000D0004770470000A8C2FF1F0348D0F848
:101F3000A401002800D0004770470000A8C2FF1F7E
:101F40000348D0F8A801002800D0004770470000DF
:101F5000A8C2FF1F0348D0F8AC01002800D00047FA
:101F600070470000A8C2FF1F0348D0F8B001002846
:101F700000D0004770470000A8C2FF1F0348D0F8F8
:101F8000B401002800D0004770470000A8C2FF1F1E
:101F90000348D0F8B801002800D00047704700007F
:101FA000A8C2FF1F0348D0F8BC01002800D000479A
:101FB00070470000A8C2FF1F0348D0F8C0010028E6
:101FC00000D0004770470000A8C2FF1F0348D0F8A8
:101FD000C401002800D0004770470000A8C2FF1FBE
:101FE0000348D0F8C801002800D00047704700001F
:101FF000A8C2FF1F0348D0F8CC01002800D000473A
:1020000070470000A8C2FF1F0348D0F8D001002885
:1020100000D0004770470000A8C2FF1F0348D0F857
:10202000D401002800D0004770470000A8C2FF1F5D
:102030000348D0F8D801002800D0004770470000BE
:10204000A8C2FF1F0348D0F8DC01002800D00047D9
:1020500070470000A8C2FF1F0348D0F8E001002825
:1020600000D0004770470000A8C2FF1F0348D0F807
:10207000E401002800D0004770470000A8C2FF1FFD
:102080000348D0F8E801002800D00047704700005E
:10209000A8C2FF1F0348D0F8EC01002800D0004779
:1020A00070470000A8C2FF1F0348D0F8F0010028C5
:1020B00000D0004770470000A8C2FF1F0348D0F8B7
:1020C000F401002800D0004770470000A8C2FF1F9D
:1020D0000348D0F8F801002800D0004770470000FE
:1020E000A8C2FF1F0348D0F8FC01002800D0004719
:1020F00070470000A8C2FF1F2DE9F04104461D46AD
:1021000016460F462A2000F073F8204600F050F8DB
:10211000304600F04DF82B2000F06AF8384600F009
:1021200047F8284600F044F8BDE8F0412C2000F0C4
:102130005FB800284FF00401084601D000F094B9C0
:1021400000F062B92DE9F04780461F46581E83B261
:102150001646501E82B20D464046DDF82090FFF72D
:10216000CBFF0AE0444604E0484600F021F8641C36
:10217000A4B2B442F8D36D1CADB2BD42F2D3BDE8F7
:10218000F087000070B5094C05460121204600F09B
:1021900073FB0028F9D02946204600F0F1FD052107
:1021A000204600F069FB0028F9D070BD00C4014052
:1021B00010B50446000A00F005F8E0B2BDE8104092
:1021C000AFF3008010B504461021002000F01CF988
:1021D0000649088840F480720A802046FFF7D2FF43
:1021E0001021BDE81040002000F03EB9083805403D
:1021F00010B504461021002000F006F906490888B1
:1022000040F480720A802046FFF7BCFF1021BDE831
:102210001040002000F028B90A38054008B516F033
:10222000FBFA1BF0F9FDBDF800001F2161F304006B
:102230003F2180B261F34A10ADF80000BDF80010F4
:10224000002060F3CF21ADF8001088B2002100908B
:102250004FF4A073F0220846FFF774FF08BD10B5D5
:10226000AFF3008010BD10B5AFF3008010BD0000CB
:102270002DE9F04114460F4606004FF000050DD041
:10228000012E0BD0022E09D0032E07D0042E05D02C
:10229000052E03D0AC2152A0FFF7E4F9207838B125
:1022A000012805D0022803D0AE214DA0FFF7DAF9AE
:1022B000607938B1012805D0022803D0AF2148A0A9
:1022C000FFF7D0F9A07928B1012803D0B02144A0AC
:1022D000FFF7C8F9607828B1012803D0B12140A0E8
:1022E000FFF7C0F9A07828B1012803D0B2213CA0A3
:1022F000FFF7B8F9E07828B1012803D0B32138A05E
:10230000FFF7B0F9207928B1012803D0B42134A017
:10231000FFF7A8F9E07928B1012803D0B52130A052
:10232000FFF7A0F9DFF8DCE04AF20150AEF8000058
:102330004FF0010C0CFA05F0384242D0B00100EB2E
:10234000850130482F4A001D0844921D11446378CE
:10235000028863F38E320280A378028863F30C3222
:102360000280E378028863F349220280237902889D
:1023700063F386120280A379028863F382020280EB
:102380006379028863F305120280227822B1012A60
:102390000AD0022A10D11FE0028822F400420280F3
:1023A000028822F0020206E0028822F40042028043
:1023B000028842F002020280E279088862F3082073
:1023C00008806D1CEDB2102DB4D34FF42540AEF84B
:1023D00000000020BDE8F081028842F40042EAE7F4
:1023E0002E2E5C2E2E5C6472697665725C7372634D
:1023F0005C68633332663436305F6770696F2E63B2
:1024000000000000FC3B054070B50D4604000ED0F6
:10241000012C0CD0022C0AD0032C08D0042C06D09E
:10242000052C04D040F20F2105A0FFF71BF90D4841
:1024300000EB0410018829430180002070BD0000DA
:102440002E2E5C2E2E5C6472697665725C737263EC
:102450005C68633332663436305F6770696F2E6351
:10246000000000000A38054070B50D4604000ED08B
:10247000012C0CD0022C0AD0032C08D0042C06D03E
:10248000052C04D040F2F71105A0FFF7EBF80D483A
:1024900000EB0410018829430180002070BD00007A
:1024A0002E2E5C2E2E5C6472697665725C7372638C
:1024B0005C68633332663436305F6770696F2E63F1
:1024C00000000000083805402DE9F0471E4615467B
:1024D000894607004FF000040ED0012F0CD0022FC8
:1024E0000AD0032F08D0042F06D0052F04D04FF4B4
:1024F0001A7123A0FFF7B6F875B1681E09280BD929
:102500000E2D09D00F2D07D01F381B2804D940F2FB
:1025100069211BA0FFF7A6F836B1012E04D040F2C6
:102520006A2117A0FFF79EF8DFF878C04AF2015041
:10253000ACF80000BB014FF001080CF1060708FAE7
:1025400004F212EA090F0CD003EB8400384401882E
:1025500065F3050101800188012E0DD021F4807101
:102560000180641CE4B2102CE9D34FF42540ACF890
:1025700000000020BDE8F08741F48071F0E7000022
:102580002E2E5C2E2E5C6472697665725C737263AB
:102590005C68633332663436305F6770696F2E6310
:1025A00000000000FC3B054070B504460F480D4696
:1025B000044200D124B940F286210DA0FFF752F861
:1025C00035B1012D04D040F2872109A0FFF74AF868
:1025D00010480F4901610168012D05D021430160B8
:1025E0000B49491E016170BDA143F8E7EE3A0C703A
:1025F0002E2E5C2E2E5C6472697665725C7372633B
:102600005C68633332663436305F7077632E630004
:102610000100A5A50080044070B504460C480D4695
:10262000044200D124B940F2BF210AA0FFF71AF8F2
:10263000104E35B1012D08D04FF4307105A0FFF7D1
:1026400011F870682043706070BD7068A043FAE7AD
:102650008602F0F02E2E5C2E2E5C64726976657216
:102660005C7372635C68633332663436305F7077F4
:10267000632E63000080044000B589B020216846C5
:10268000FDF7AFFE6846FEF729FA00984FF47A711D
:10269000B0FBF1F0401EB0F1807F0AD24FF0E02194
:1026A0004861054AF02082F8140D00208861072057
:1026B000086109B000BD00000FE000E070B50446FD
:1026C00000F07CFB05007DD0208EC00706D0208E58
:1026D00040F001002086286800B18047208E8007E6
:1026E00006D5208E40F002002086686800B1804741
:1026F000208E400706D5208E40F004002086A86872
:1027000000B18047208EC00606D5208E40F0100014
:102710002086E86800B18047208E800606D5208E8E
:1027200040F020002086286900B18047208E4006B6
:1027300006D5208E40F040002086686900B18047B1
:10274000208E000606D5208E40F080002086A869E5
:1027500000B18047208EC00502D5E86900B18047EE
:10276000608EC00706D0608E40F001006086286A47
:1027700000B18047608E800706D5608E40F0020071
:102780006086686A00B18047608E400706D5608E1B
:1027900040F004006086A86A00B18047608E0007A0
:1027A00006D5608E40F008006086E86A00B1804778
:1027B000608EC00608D5608E40F010006086286BE1
:1027C00010B100E021E08047608E400606D5608EA3
:1027D00040F040006086A86B00B18047608E8006A4
:1027E00006D5608E40F020006086686B00B180479F
:1027F000608EC00509D5608E40F480706086E86BFD
:10280000002802D0BDE87040004770BD70B50D468D
:1028100004460D4904208C4208D00C498C4205D056
:102820000B498C4202D00B498C420CD135B1012DA1
:1028300004D04FF4F57108A0FEF714FF606865F34B
:1028400086106060002070BD00C0014000C40140DF
:1028500000000240000402402E2E5C2E2E5C6472AA
:10286000697665725C7372635C68633332663436B2
:10287000305F7370692E630070B5044622480026ED
:102880000D46844208D02148844205D02048844225
:1028900002D02048844235D185B1012D0ED0022DC1
:1028A0000CD0032D0AD0042D08D0052D06D0062DFE
:1028B00004D040F20D4118A0FEF7D4FE072D21D21E
:1028C000DFE805F004080C1014181D006069C0F35F
:1028D000C01617E06069C0F3401613E06069C0F3EA
:1028E00000160FE06069C0F3C0060BE06069C0F33A
:1028F000800607E06069012121EA500602E0606974
:1029000000F00106304670BD00C0014000C4014027
:1029100000000240000402402E2E5C2E2E5C6472E9
:10292000697665725C7372635C68633332663436F1
:10293000305F7370692E630070B50D460446FF4921
:1029400004208C4208D0FE498C4205D0FD498C42BF
:1029500002D0FD498C427DD1002D7BD0287830B14A
:10296000012804D040F22F11F8A0FEF77BFE687812
:1029700090B1012810D002280ED003280CD00428D2
:102980000AD0052808D0062806D0072804D04FF41E
:102990009871EEA0FEF766FEA87830B1012804D049
:1029A00040F23111E9A0FEF75DFEE87890B1012810
:1029B00010D002280ED003280CD004280AD00528F5
:1029C00008D0062806D0072804D04FF49971DFA05C
:1029D000FEF748FE287930B1012804D040F23311C7
:1029E000DAA0FEF73FFE687990B1012810D00228E6
:1029F0000ED003280CD004280AD0052808D00628B9
:102A000006D0072804D04FF49A71D0A0FEF72AFE12
:102A1000A87950B1012808D0022806D0032804D094
:102A200040F23511C9A0FEF71DFEE87930B101284A
:102A300004D04FF49B71C5A0FEF714FE287A30B184
:102A4000012804D040F23711C0A0FEF70BFE687ACF
:102A500040B100E041E1012804D04FF49C71BBA0DB
:102A6000FEF700FEA87A30B1012804D040F23911F7
:102A7000B6A0FEF7F7FDE87A30B1012804D04FF494
:102A80009D71B2A0FEF7EEFD287B30B1012804D085
:102A900040F23B11ADA0FEF7E5FD687B30B10128A7
:102AA00004D04FF49E71A9A0FEF7DCFDA87B90B185
:102AB000012810D002280ED003280CD004280AD0F8
:102AC000052808D0062806D0072804D040F23D117A
:102AD0009EA0FEF7C7FDE87B10B3012820D0022896
:102AE0001ED003281CD004281AD0052818D0062888
:102AF00016D0072814D0082812D0092810D00A2888
:102B00000ED00B280CD00C280AD00D2808D00E2887
:102B100006D00F2804D04FF49F718CA0FEF7A2FDC1
:102B2000287C30B1012804D040F23F1187A0FEF785
:102B300099FD687C50B1012808D0022806D00328EE
:102B400004D04FF4A07181A0FEF78CFDA87C30B1B9
:102B5000012804D040F241117CA0FEF783FDE87CFF
:102B600030B1012804D04FF4A17178A0FEF77AFDAE
:102B7000287D30B1012804D040F2431173A0FEF744
:102B800071FD687D30B1012804D04FF4A2716FA0AF
:102B9000FEF768FDA87D30B1012804D040F2451150
:102BA0006AA0FEF75FFDE87D30B1012804D04FF444
:102BB000A37166A0FEF756FD287E30B1012804D02F
:102BC00040F2471161A0FEF74DFD687E30B101284B
:102BD00004D04FF4A4715DA0FEF744FD287D0128C8
:102BE0007DD0A06920F40040A061A06920F480405D
:102BF000A061A06920F40050A061E06820F4E0002A
:102C0000E060E06820F0E060E060E06820F0E04034
:102C1000E060A87CF0B3A06920F0E000A061E0686B
:102C200020F48070E060E06820F40070E060E0680C
:102C300020F48060E060E06820F40060E060E97A01
:102C4000E06861F38610E060697CE06861F3010090
:102C5000E060297CA06961F30C30A061E97BA06988
:102C600061F30B20A061A97BA06961F38400A061DE
:102C7000297BA06961F34100A061697BA06961F3D0
:102C80000000A061A97C606861F300006060E97CDD
:102C9000606800E041E061F341006060297D6068A8
:102CA00061F3C3006060697D606861F3C7106060B4
:102CB000A97D606861F30C306060E97D606861F354
:102CC0004D306060297E606861F3CF306060697E5E
:102CD000606861F38E306060002070BDFFE7297886
:102CE000A06961F3CF30A061A978A06961F38E304B
:102CF000A0612979A06961F34D30A0616978E0682D
:102D000061F31650E060E978E06861F31A60E06012
:102D10006979E06861F31E707AE7A979A06961F3C7
:102D20004710A061E979E06861F30820E060297A42
:102D3000E06861F34920E060697A17E000C0014073
:102D400000C4014000000240000402402E2E5C2E10
:102D50002E5C6472697665725C7372635C6863335F
:102D600032663436305F7370692E6300E06861F359
:102D70008A20E060A97AE06861F3CB205EE700007A
:102D8000084B0422984208D0074B984205D0074BC5
:102D9000984202D0064B984201D1016000221046B1
:102DA0007047000000C0014000C401400000024024
:102DB0000004024010B5AFF3008010BD0E4A10B5FC
:102DC0000C4911600D490023516480B1002101EBD1
:102DD000011452F82440844205D101EB011002EBAA
:102DE00080031B1D03E0491CC9B20229EFD318461A
:102DF00010BD000000FC0640A8C4FF1F00000740F3
:102E00002DE9F0410446364804270D464FF0FF36C1
:102E1000844208D03348844205D03348844202D0EB
:102E20003248844259D1204600F0ACFEE8B329462E
:102E300000EE101AF1EE000AB8EE400A60EE200A29
:102E400000EE100AB8EE400A80EE201AB7EE000A33
:102E500031EE400AFCEEC00AB5EEC00A10EE905A00
:102E6000F1EE10FA39DBFF2D37D800EE905A204BE7
:102E70000027F8EE600A30EE600A10EE102A9A423F
:102E80001FDD6A1CA2FB013E002646F1000C0CFB74
:102E900001E102FB061189029E0241EA93510246BA
:102EA00000233046FDF724FA00E016E06FF07F01C2
:102EB00046187F2E01D904270FE0E06840F000504B
:102EC00002E0E06820F00050E060A06866F30600D1
:102ED000A060A06865F30F20A0603846BDE8F081CF
:102EE00000D0014000D40140001002400014024014
:102EF000ACC527372DE9FF47044642480F464FF03F
:102F0000FF360FC88DE80F003F484FF00409844298
:102F100008D03E48844205D03D48844202D03D4816
:102F200084426BD1204600F02DFEE8B3616900EECB
:102F3000107AC1F342513DF81120F8EE400A00EE3C
:102F4000102AB8EE400A20EE800AF0EE000A60EE89
:102F5000200A00EE100AB8EE401A81EE200AF7EEC1
:102F6000000A30EE600AFCEEC00AB5EEC00A10EEB0
:102F7000905AF1EE10FA41DBFF2D3FD800EE905A47
:102F8000254B4FF00009F8EE600A30EE600A10EEB3
:102F9000101A994226DD00266B1CA3FB071846F188
:102FA000000C0CFB078700E028E003FB0677A1FB81
:102FB000023C07FB02C201FB062149025E0241EA14
:102FC000D351024600233046FDF792F96FF07F019E
:102FD00046187F2E02D94FF004090FE0E06840F058
:102FE000005002E0E06820F00050E060A06866F366
:102FF0000600A060A06865F30F20A06004B04846FA
:10300000BDE8F087646B020000D0014000D40140AD
:103010000010024000140240ACC527372DE9F047EC
:10302000044640480426006A0125C0F3021005FA50
:1030300000F23D480068B0FBF2F0A2699207530F1E
:1030400005FA03F2B0FBF2F20020002A66D0E1B3E9
:10305000E36800EE101AF2EE000AC3F3C033B8EED4
:10306000400AB0EE001A60EE200A00EE103AB8EE08
:10307000400A31EE400A60EE800A00EE102AB8EEF7
:10308000400A80EE201AB7EE000A31EE400AFCEE4C
:10309000C00AB5EEC00A10EE905AF1EE10FA3DD318
:1030A000FF2D3BD800EE905A204FF8EE600A30EE2C
:1030B000600A10EE106ABE4223DD81460220D3EB87
:1030C000000069EB09076E1C00E027E0A0FB063852
:1030D00007FB068649F1000C00FB0C66A3FB010C04
:1030E00006FB01C103FB0911C90241EA5051C002AC
:1030F0000023FDF7FDF8803803D0E16841F000516E
:1031000002E0E16821F00051E160A16860F306018E
:10311000A160A06865F30F20A06000263046BDE8DE
:10312000F0870000004005400480FF1FACC5273732
:103130002DE9F047044643480F464FF0FF364FF065
:103140000409844208D04048844205D03F48844264
:1031500002D03F48844272D1204600F013FD00287F
:103160006DD0E16800EE107AF2EE000AC1F3C031D2
:10317000B8EE400AB0EE001A60EE200A00EE101A17
:10318000B8EE400A31EE400A60EE800A00EE100A06
:10319000B8EE401A81EE200AF7EE000A30EE600A1F
:1031A000FCEEC00AB5EEC00A10EE905AF1EE10FA2D
:1031B00045DBFF2D43D800EE905A264B4FF0000917
:1031C000F8EE600A30EE600A10EE102A9A422ADD0C
:1031D00002224FF0000AD1EB02026AEB0A06691CD8
:1031E000A2FB013806FB01814AF1000C02FB0C1125
:1031F000A3FB072C01FB07C103FB0A11C90241EA2B
:103200005251D602024600233046FDF771F86FF0A6
:103210007F0146187F2E02D94FF004090FE0E068C5
:1032200040F0005002E0E06820F00050E060A0684C
:1032300066F30600A060A06865F30F20A060484612
:10324000BDE8F08700D0014000D4014000100240EA
:1032500000140240ACC5273770B588B0002505952D
:103260000695142168460795FDF7BBF801268DF8F1
:10327000145002248DF815608DF818408DF8165002
:103280008DF819408DF817608DF81A6005A8FDF7C4
:1032900081FE8DF81D508DF81E408DF81C6007A82A
:1032A000FDF77EFF0120FDF715FF3C20CDE9024030
:1032B0000094049601940020FDF7C0FD6846FDF7D8
:1032C00013FDFEF74FFA0420FEF70EFAFEF700FAA0
:1032D0000120FDF7AFFC0220FDF76AFC0128FAD1BE
:1032E0000520FDF7DFFD08B070BD10B51FF0AAFC8A
:1032F00020F0A8FA1FF0B4FCBDE8104001201DF03A
:1033000099B9000030B51F480068C1071E4801D0B8
:103310001E4900E01E4901601E4991F826201E4DFD
:1033200002F007024FF40043062A07D2DFE802F05A
:1033300003050705070901681EE0456030BD4360CD
:1033400030BDD1F80021C2F3C014D1F80021D1F86A
:103350000031C2F30822D1F800111B0F01F01F0148
:1033600064B1002CECD00468491CB4FBF1F1521C90
:1033700051435B1CB1FBF3F1416030BD491CB5FB0F
:10338000F1F1F4E7840601400080FF1F0024F400FF
:10339000002D31010040054000127A000348016809
:1033A00041F470010160FFF7ADBF000088ED00E05F
:1033B0002DE9F0472A4F0425DFF8A880DFF8A89010
:1033C0000E460446B84206D0444504D04C4502D0CF
:1033D0002648844241D18EB382B390472448BC42F0
:1033E00003D1416821F080710DE0444503D141686B
:1033F00021F0007107E041684C4502D121F0806165
:1034000001E021F000614160E06820F08050E06060
:10341000E06820F08070E060E06840F40040E06028
:10342000E06820F48050E060E06820F48060E060B4
:1034300031462046FFF7F2FD08B101250DE00020DE
:1034400020616061E06840F00800E06009480A49D6
:1034500084600968B1FBF6F1C1602846BDE8F087D9
:1034600000D0014000D4014000100240001402408E
:10347000008004400880FF1F0480FF1F154B0422BA
:10348000984208D0144B984205D0144B984202D071
:10349000134B98420AD10022012909D002290BD0EE
:1034A00008290DD0B1F5807F0ED004221046704758
:1034B000C16841F480310AE0C16841F4003106E09E
:1034C000C16841F4002102E0C16841F48011C1608B
:1034D000ECE7000000D0014000D4014000100240A1
:1034E000001402400B4A0421904208D00A4A90423C
:1034F00005D00A4A904202D0094A904208D10949AF
:10350000C1600021016141614FF6FF7282608161FB
:103510000846704700D0014000D40140001002402E
:103520000014024000001B8018B5834C0423A04205
:1035300008D0824CA04205D0814CA04202D0814CE0
:10354000A0427DD100230F297BD2DFE801F0080CD7
:103550001014181C202C302428DEE3E8EC00C1688D
:1035600062F38201D4E0C16862F34511D0E0C16822
:1035700062F3C301CCE0C16862F3C711C8E0C1685F
:1035800062F30001C4E0C16862F34101C0E0C168B8
:1035900062F30411BCE0C16862F38A21B8E0C1683B
:1035A00062F39E71B4E0C16862F38611B0E0C16855
:1035B000009C61F300040094C1684C08009964F316
:1035C00041010091C1688C08009964F38201009167
:1035D000C168CC08009964F3C3010091C1680C096B
:1035E000009964F304110091C1684C09009964F3D7
:1035F00045110091C1688C09009964F3861100910E
:10360000C168CC09009964F3C711009181890C0A43
:10361000009964F308210091C1684C0A009964F391
:1036200049210091C1688C0A009964F38A210091B4
:103630008189CC0A009964F3CB210091C16801E033
:1036400077E075E00C0B009964F30C3100918189EF
:103650004C0B009964F34E310091C168CC0B00997A
:1036600064F3CF310091C1680C0C009964F31041F0
:103670000091C1684C0C009964F351410091C168FC
:103680008C0C009964F392410091C168CC0C0099B4
:1036900064F3D3410091C1680C0D009964F3145197
:1036A0000091C1684C0D009964F357510091C168B5
:1036B0000C0E009964F318610091C1684C0E0099DA
:1036C00064F35B610091C1680C0F009964F31C7195
:1036D0000091C1684C0F009964F35D710091C1685D
:1036E0008C0F009964F39E710091C168CC0F009912
:1036F00064F3DF710091009962F3C30100910099B6
:1037000062F3C7110091009902E0C16862F35D7134
:10371000C1600EE0016962F30001016109E04169E5
:1037200062F3451102E0416962F34921416100E021
:103730000423184618BD000000D0014000D4014009
:10374000001002400014024070B5054616480C46B1
:1037500085420DD0154885420AD01548854207D0CC
:103760001448854204D04FF4D97113A0FDF77AFFB5
:10377000B4F5803F13D0802C11D0022C0FD0202C18
:103780000DD0B4F5807F0AD0012C08D0082C06D0CB
:10379000402C04D040F2B31107A0FDF763FF286866
:1037A000204000D0012070BD00D0014000D4014075
:1037B00000100240001402402E2E5C2E2E5C64721B
:1037C000697665725C7372635C6863333266343643
:1037D000305F75736172742E630000000F4B10B57B
:1037E0000422984208D00E4B984205D00D4B9842C7
:1037F00002D00D4B98420ED14269920602D5FFF7D6
:1038000079FB07E0C268D20102D5FFF7F9FA01E0BF
:10381000FFF78EFC0246104610BD000000D00140AC
:1038200000D4014000100240001402407FB5002681
:103830000D4604460096019602960396C14904205F
:103840008C4208D0C0498C4205D0C0498C4202D07D
:10385000BF498C427ED1002D7CD0687848B10128C8
:1038600007D0022805D0032803D0C321B9A0FDF753
:10387000F9FE2878022806D0012804D018B1C42106
:10388000B4A0FDF7EFFE287928B1012803D0C521A7
:10389000B0A0FDF7E7FE6879022806D0012804D021
:1038A00018B1C621ABA0FDF7DDFEE87828B10128EC
:1038B00003D0C721A7A0FDF7D5FEA87828B101281D
:1038C00003D0C821A3A0FDF7CDFE287A28B1012896
:1038D00003D0C9219FA0FDF7C5FEA879012804D017
:1038E00018B1CA219BA0FDF7BDFEE87928B10128D7
:1038F00003D0CB2197A0FDF7B5FE9F48E06026617D
:1039000066614FF6FF70A060A661039820F020006A
:103910000390019820F0807001906978009861F31D
:1039200001000090A978019861F30C300190E978CA
:10393000019861F31C7001902979029861F34D3070
:1039400002902978029861F3CC200290687930B116
:10395000012800E0ECE006D0022809D1EAE0019855
:1039600020F4806003E0019820F40070E5E001900D
:10397000297A039861F349200390E979019861F36A
:10398000DF700190A979019861F3CF300190009820
:10399000A16960F30101A1610098A0610298216909
:1039A00060F300012161BDF8080020820298C10A7D
:1039B000206961F3CC2020610298410B206961F3FA
:1039C0004D302061BDF80900A4F811009DF80B00EE
:1039D000E0749DF80C00207503984109606961F35B
:1039E00045106061BDF80C00A0820398410A60692F
:1039F00061F349206061BDF80D00A4F8150003983B
:103A0000410D606961F3575060619DF80F00E075EA
:103A10000199E06861F30000E06001984108E06806
:103A200061F34100E06001988108E06861F3820081
:103A3000E0600198C108E06861F3C300E0600198AC
:103A40000109E06861F30410E06001984109E06851
:103A500061F34510E06001988109E06861F3861028
:103A6000E0600198C109E06861F3C710E0609DF86B
:103A7000050060730198410AE06861F34920E06045
:103A80000198810AE06861F38A20E0609DF80500F2
:103A900060730198010BE06861F30C30E0609DF801
:103AA000050060730198C10BE06861F3CF30E060FE
:103AB0000198010CE06861F31040E0600198410C4E
:103AC000E06861F35140E0609DF80600A073019842
:103AD000C10CE06861F3D340E0600198010DE0683B
:103AE00061F31450E0609DF80600A0730198010E88
:103AF000E06861F31860E0609DF80700E0730198EA
:103B0000010FE06861F31C70E0600198410FE0680C
:103B100061F35D70E0600198810FE06861F39E7071
:103B2000E0600198C10FE06861F3DF70E0600020A1
:103B300004B070BD019840F400700190019840F409
:103B4000806014E700D0014000D401400010024022
:103B5000001402402E2E5C2E2E5C64726976657213
:103B60005C7372635C68633332663436305F7573DE
:103B70006172742E6300000000001B8010B5AFF36B
:103B8000008010BD10B50446114884420DD0114884
:103B900084420AD01048844207D01048844204D09E
:103BA00040F25A610EA0FDF75DFD1648006A012340
:103BB000C0F3021003FA00F113480068B0FBF1F003
:103BC000A16989074A0F03FA02F1B0FBF1F010BDB9
:103BD00000D0014000D40140001002400014024017
:103BE0002E2E5C2E2E5C6472697665725C73726335
:103BF0005C68633332663436305F75736172742E7D
:103C000063000000004005400480FF1F0FB4054B17
:103C100010B503A9044A029801F03AFF10BC5DF800
:103C200014FB0000C1F80000A482FF1F002807D089
:103C30000E4910F0FF0F04D051FA80F00078401CBC
:103C4000704710F47F4F04D0C0F30720085C0930A0
:103C5000704710F47F0F04D0C0F30740085C1130A8
:103C6000704701EB1060007819307047746B0200E8
:103C700002E008C8121F08C1002AFAD17047704735
:103C8000002001E001C1121F002AFBD1704770B56E
:103C9000044600256FF02F0608E02068411C2160D3
:103CA000007805EB850106EB410145182068007896
:103CB00000F0C6F80028F0D1284670BD2DE9FF5F5E
:103CC00082B00021DDE90430020DDDF840B003438D
:103CD00018D044F61050A2F2FF3242431514119846
:103CE00001281FD0A5EB0B00401C5FEA000A4FF033
:103CF00000064E4FDFF83891B046504615D5CAF150
:103D0000000413E0119801244AA3012801D16FEAAD
:103D10000B010298119AC0E90031C0E9024206B0D5
:103D2000BDE8F09FCBF10000DFE704460021404AE8
:103D3000491842EB0450CDE9001012E0E00707D02B
:103D400032463B4640464946FCF7F0FC80468946F1
:103D500032463B4610461946FCF7E8FC06460F463D
:103D60006410002CEAD1DDE90401DDE90023BAF199
:103D7000000F06DAFCF7DAFC42464B46FCF7D6FCAD
:103D800005E0FCF745FD42464B46FCF741FD044685
:103D90000E460022284BFCF7ABFD03D84FF0FF3056
:103DA000014607E00022254B20463146FCF717FC70
:103DB000FCF739FE102409E0002C0ADB0A2200235C
:103DC000FCF796FA039B30321A55641E50EA010242
:103DD000F2D1641C039AC4F111031444119A012A0C
:103DE00003D0012208430DD10AE0084304D000208B
:103DF0004FF0110B119072E7A3EB0B056D1E0DE058
:103E00005B4504DD4FF0000205F1010504E003DA33
:103E10004FF00002A5F10105002AECD0029811999B
:103E2000C0E90231C0E9004579E700000000144014
:103E30000000F03F300000000000F0430000E03FD1
:103E40003038092801D80120704700207047000051
:103E500010B54021074801F021F900221E21064833
:103E60001CF042FC054CA06002F0F6FC0020207023
:103E700010BD0000A4F2FF1F016900003082FF1F87
:103E800070B5B1F90040B2F900309C4200DD234624
:103E90000380B1F90240B2F90250AC4200DC2C467A
:103EA0004480B1F90450B2F90460B54200DB3546F4
:103EB0008580B1F90610B2F90620914200DB114667
:103EC000C1800120AB4201DC8C4200DD002070BDCE
:103ED000F8B50D460446B0F90000B1F900101646D9
:103EE000884247DBB4F90210B5F90220914241DB68
:103EF000B4F90410B5F9042091423BDCB4F9061082
:103F0000B5F90620914235DC96B3ADF80000608823
:103F1000ADF8020032466946284600F099F80028BC
:103F200027D0A088ADF800006088ADF802003246C6
:103F30006946284600F08CF800281AD02088ADF891
:103F40000000E088ADF8020032466946284600F0DD
:103F50007FF800280DD0A088ADF80000E088ADF80B
:103F6000020032466946284600F072F8002800D068
:103F70000120F8BD0020F8BDB0F90020B1F90430EF
:103F80009A4213DCB0F90420B1F900309A420DDBFB
:103F9000B0F90220B1F906309A4207DCB0F9060008
:103FA000B1F90210884201DB012070470020704700
:103FB000F8B50D460446B0F90400B1F900101646F4
:103FC000884243DBB4F90600B5F9021088423DDBB4
:103FD000B4F90000B5F90410884237DCB4F90210D6
:103FE000B5F90620914231DC76B3ADF80000608867
:103FF000ADF8020032466946284600F029F818BBA1
:10400000A088ADF800006088ADF80200324669462D
:10401000284600F01DF8B8B92088ADF80000E08807
:10402000ADF8020032466946284600F011F858B94A
:10403000A088ADF80000E088ADF80200324669467D
:10404000284600F005F808B10020F8BD0120F8BDB1
:104050002DE9FC4105460F46B1F90000B5F9001005
:10406000144688423BDBB5F90410884237DCB7F9C7
:104070000200B5F90210884231DBB5F9061088421A
:104080002DDC002C76DD28460EF040FE00EBD070D3
:10409000461028460EF0EAFD00EBD0704010864234
:1040A00000DA3046844200DD04462888ADF800007E
:1040B000288800222044ADF804006888ADF802008A
:1040C000688839462044ADF806006846FFF7C0FF0F
:1040D00040B1BDF804002044ADF804003FE00020EA
:1040E000BDE8FC81E8880022001BADF80200E888EA
:1040F000ADF8060039466846FFF7AAFF28B1BDF8BB
:1041000004002044ADF8040011E0A8880022001B40
:10411000ADF80000A888ADF8040039466846FFF7FE
:1041200097FF50B1BDF80000001BADF80000BDF8CE
:104130000200001BADF8020016E06888ADF802002E
:10414000688800222044ADF8060039466846FFF72B
:104150007FFF70B1BDF80000001BADF80000BDF896
:1041600006002044ADF806003946684619F038FECE
:10417000B6E7FFE70120B3E710B5B1F90030B2F9B7
:104180000040A34200DB23460380B1F90230B2F9BC
:104190000240A34200DB23464380B1F90430B2F968
:1041A0000440A34200DC23468380B1F90610B2F933
:1041B0000620914200DC1146C18010BD2DE9FF4F61
:1041C00087B01C46DDE91465DDF858908B46022D5A
:1041D00042D3002E40D001F0ADF9804610F0F6FE3B
:1041E00000F11007D0F808A0D8F80000C16A01B1AA
:1041F00088475A4604A80799FFF742FE00282BD0AB
:104200007888404202B23888404201B204A80EF0D9
:10421000A2FDA4B1D8F80000007C00070FD404A8C8
:104220000EF05CFD0246002007E0215C802901D9E8
:10423000FF2100E000212154401C9042F5DBD8F81A
:104240000000C06958B1CDE90054029604AA514655
:104250003846099B0AF035FC0BB0BDE8F08FB9F188
:10426000000F0AD001A8009580E8500204AA514628
:104270003846099B0AF0DAF9EEE7CDE900540296D8
:1042800004AA51463846099B0AF070FAE4E72DE982
:10429000FF4F87B01C46DDE91476DDF858A0914643
:1042A000022E53D3002F51D0014605A8089AFFF7DC
:1042B000E7FD00284AD001F03DF9804610F086FE67
:1042C00000F11005D0F808B0D8F80000C16A01B1BB
:1042D0008847BDF814002988401AADF81400BDF8CD
:1042E00016006988401AADF81600BDF81800298834
:1042F000401AADF81800BDF81A006988401AADF8E8
:104300001A00A4B1D8F80000007C00070FD405A85B
:104310000EF0E4FC0246002007E0215C802901D970
:10432000FF2100E000212154401C9042F5DBD8F829
:104330000000C06968B1CDF800900397CDE9016431
:1043400005AA59462846089B1DF01FF90BB0BDE889
:10435000F08FBAF1000F0BD002A805AA80E89004F4
:10436000CDE9009659462846089B1CF0BBFEEDE7B8
:10437000CDF800900397CDE9016405AA5946284677
:10438000089B1CF061FFE1E7F8B507461CF048F90F
:104390000025274C06460095F868606038461CF0FA
:1043A00071FA6068006919F0B7FC6068406908B18B
:1043B00019F0B2FC6068C06919F0AEFC6068006A70
:1043C00019F0AAFC6068016979B319F03FFF19F090
:1043D000B9FE6168B1F85401F8B10868007C800743
:1043E00001D504F021FD60684FF48071343015F080
:1043F0006BFE6068202100F59A7015F065FE60681C
:10440000A0F8545130461CF005F90090606800682F
:10441000036A13B122680099984715F09BFC00F0DD
:1044200031F8BDE8F84000F005B8A0F85451F8BDE7
:104430000082FF1F70B5094E0024C4EBC40556F876
:10444000250008B115F0FAFC06EB85001C2115F0DB
:104450003BFE641CE4B2042CEFD370BD80F3FF1F5D
:1044600007490122496807E04B68834202D00B6884
:10447000834200D10A7649690029F5D170470000CE
:10448000D481FF1F704700000421014800F006BEE0
:1044900098F2FF1F1C21014800F000BEB0F2FF1F80
:1044A0002DE9FE4F0446DDE90C0513B9B0F5807F18
:1044B0007ED0B5F900604FF0FF3C764246430CEBEE
:1044C000262636B22680B5F902707F4247430CEBB0
:1044D00027273FB26780B5F900C0A1EB0C0141432B
:1044E0004FF0020C0CEB212109B2A180B5F902803A
:1044F000A2EB080242430CEB222000B2E080002B2A
:104500007ED04FF00A0A93FBFAF6704200EB80006F
:1045100003EB400706F1010930B21CF0FFFA0090EE
:104520000FFA89F01CF0FAFA83465A3630B21CF0C2
:10453000F5FA804609F15A0000B21CF0EFFA014684
:10454000009AC7F10A0000FB02F300FB08F001FB30
:1045500007010BFB073393FBFAF291FBFAF15011C1
:10456000B4F900204FEA611BB4F902100BFB02F60C
:10457000B5F800C000FB11630CEBA323E646B5F8C9
:1045800002C00FFA83FACDF800C0B4F9043000FB82
:1045900002F90BFB01920BFB03F800FB11850CEBFE
:1045A000A2220EEBA52512B22DB200FB03FC00E007
:1045B0002EE0CDE901C80BFB01C1DDF800C0B4F964
:1045C00006700CEBA1210BB200FB17610EEBA121D1
:1045D0000EB2DDF808800BFB079100FB17800CEB97
:1045E000A121DDF804C00EEBA0200BFB07C7DDF80E
:1045F00000C009B20CEBA72700B23FB2D44600E0DE
:104600000FE0564500DAB446A84217DA804616E0B5
:1046100000202080491E6080A180521EE280BDE8FB
:10462000FE8F2A88324422806A883A4462802A882F
:104630001144A18069880844E080F0E7A846C44599
:1046400004DAD446564506DAB44604E0A84201DA54
:10465000844600E0AC46A4F800C0D446564500DDD0
:10466000B446A84201DD804600E0A846C44504DD0A
:104670005046564504DD304602E0A84200DC28469C
:10468000A080914201DA084600E010469F4201DA1C
:104690003D4600E01D46A84205DA914201DA08468F
:1046A00006E0104604E09F4201DA384600E0184672
:1046B0006080914201DD084600E010469F4201DD26
:1046C0003D4600E01D46A84203DD914206DC11464E
:1046D00004E09F4201DD394600E01946E1809EE793
:1046E0002DE9FE4F0446D0F800B0B0F90800E58986
:1046F000081AB4F90A10511AD4E90932B5F5807FC5
:104700003AD0A589002DA56B05FB00F005FB01F54E
:104710004FEA60104FEA65113CD0256BE66A05FB55
:1047200000F706FB1177464305FB016003EBA72961
:1047300002EBA020B4F904104FEA292706128046A4
:10474000B9424ADD002F48DBB4F90600B04244DD2F
:10475000002E42DB94F83400420741D5820704F171
:1047600014001BD401FB067102224D0092460BEB94
:10477000050115F062FC21E0256BE66A05FB00F7F8
:1047800006FB1177464305FB016003EBA70902EB2B
:10479000A000CFE703EB00095018CBE701FB06713F
:1047A00001EB41054FF0030A0BEB0501022215F066
:1047B00044FCE81C584410F8010CA07594F834002F
:1047C000C00723D00022FF2110460FF09DFF00906C
:1047D000BDF80000A18A814218D10020BDE8FE8FFB
:1047E00032B204F118002369CDE90102002539B283
:1047F000AA468B4613F006FA0090BDF80000A0828E
:10480000DDE90102594613F095F9D6E7E07C78B16D
:10481000A4F83C90A4F83E80A4F84070A4F842604C
:10482000656484F848A02046BDE8FE4F00F002B859
:104830000120D3E72DE9F04F044690F83C10D0F862
:10484000009090F83E0087B04FF0FF36702907DAED
:10485000B4F940203546012A00D5002580310DE00D
:10486000902916DDB4F94020B4F904300125521C1A
:104870009A4200DB0025A1F27F114942C9B2884665
:10488000702809DAB4F94210012900D500268030D9
:1048900010E00025FF21F2E790280DDDB4F9421069
:1048A000B4F906200126491C914200DB0026A0F243
:1048B0007F104042C7B201E00026FF2760690590E3
:1048C000A07D0190002083468246009094F8340039
:1048D000400744D594F84810606C11FB0501494429
:1048E000022204A815F0A9FBA08894F8481010FB38
:1048F00001F0616C022206FB0011494403A815F087
:104900009CFBA18894F8480011FB00F1626C06FB47
:10491000012210FB05901118022202A815F08DFB50
:1049200094F83400800761D594F84800616C10FB5E
:10493000051300EB0902134413F8013C0093A3880C
:1049400013FB00F306FB03110A4412F801BC10FB31
:104950000500014401EB090010F8010C45E0B4F832
:104960004000B4F94220284401B204F11800814605
:10497000236913F047F90490B4F84200B4F94010E9
:10498000304402B254F8103F484613F03BF903900C
:10499000608E2368304402B2208E284401B248461B
:1049A00013F030F9029094F82400103C80071DD5D4
:1049B000B4F9422034F8400F284401B2484613F0BD
:1049C000B9F800906088B4F90010304402B248464B
:1049D00013F0B0F883466088304402B234F84009DE
:1049E000284401B2484613F0A5F8824694F83400F2
:1049F00042464546800735D5019810FB08F30099DB
:104A0000C8F1FF0011FB0031C1F307211BFB08F6C1
:104A10001AFB0060C0F3072011FB07F3C7F1FF0684
:104A200010FB06331B0AA375022907D8022803D8F6
:104A3000002007B0BDE8F08F002702E0022800D870
:104A4000FF270198022800D800220098022800D8E9
:104A5000FF22BBF1020F00D80025BAF1020F03D8E4
:104A6000FF2501E0FF20A075DAB1FF2A1BD0DDE9A8
:104A700004100FF00FFF0190BDB1FF2D17D0DDE93D
:104A800002102A460FF006FF00903FB1FF2F10D012
:104A900001463A4601980FF0FDFE0090BDF8000077
:104AA00009E00498E7E70598E5E70298ECE7039842
:104AB000EAE7BDF80400A0820120BAE72DE9F0473B
:104AC0000446B0F908000A2700026062B4F90A003F
:104AD0000002A062B4F90C0090FBF7F5694201EB0B
:104AE000810100EB4106684205F1010800B21CF0AB
:104AF00015F88246E84300B21CF010F88146C5F173
:104B00005A0000B21CF00AF80546C8F15A0000B27B
:104B10001CF004F80146C6F10A0000FB0AF36843E2
:104B200001FB060009FB063292FBF7F290FBF7F05F
:104B300051114011C4E90B10A07C13F008F994F84E
:104B4000341060F3000184F83410A07C13F0EFF807
:104B500094F8341060F3410184F83410A07C0428E8
:104B600023D0052821D006281FD021F0040184F885
:104B7000341021682162A16921F0E00160F3040191
:104B8000A08860F39421E08860F35F51A161E0891F
:104B90004FF4001101EB5001B1FBF0F0A063FF20D6
:104BA000A075208AA082BDE8F08741F00401DEE70D
:104BB0002DE9F04115460E460746114C1BF030FD1D
:104BC00080462B4632463946204613F007FC20B17A
:104BD0000020A062E06950B110E02C21204615F0C1
:104BE00073FA4FF00040A0620020BDE8F08140461B
:104BF0001BF010FDE06108B90120E0612046F4E7F8
:104C0000D4F2FF1F10B51421074800F047FA13F043
:104C1000ABFB40B105490160054941600549816030
:104C20000549C16010BDFEE7BCF2FF1F9D7D01007C
:104C30001181010089820100697D0100FEB5856A4C
:104C40000446BDB9A08A218A0844A082E08A618A0C
:104C50000844E082204609F09AFF050079D02046FA
:104C60000BF0D6FE00220921284612F0E9FC6078FC
:104C700080076ED4208A10B9608A002869D0002687
:104C8000ADF80860ADF8046094F83C0000F00F0047
:104C90000328284616D016F043FD0746284616F08E
:104CA000FDFB03460C200090B4F912103A4628464A
:104CB00009F00EFBADF80400284616F03FFCC107D2
:104CC00012D017E016F0C2FC0746284616F05EFC2C
:104CD000024603200090B4F910103B46284609F024
:104CE000F7FAADF80800E7E7BDF90810002901DD83
:104CF000ADF80860810705D4BDF90810002901DA74
:104D0000ADF80860410705D4BDF90410002901DDA4
:104D1000ADF80460000705D4BDF90400002801DAED
:104D2000ADF8046001AA02A920461FF088F900230B
:104D3000BDF90420BDF90810284618F049FCA08AE6
:104D4000BDF808100844A082E08ABDF804100844A9
:104D5000E082FEBD2DE9FC5F0446806A5FEA000B3D
:104D600071D094F83C0000076DD013F089FC0190DD
:104D700000684021457E584617F04DFC4FF0000872
:104D800018B9A4F81A80A4F81880584616F0BAFC8E
:104D90008246584616F0BDFC064694F83C004FF09B
:104DA000640900F00F000C2802D003284CD09AE0D0
:104DB000A4F8188056B1B4F91A50002713F060FC1B
:104DC00000684946407EC0F1640022E0608BC5F176
:104DD000640110FB01F191FBF9F06083584616F075
:104DE0005DFB0546584616F09BFC02460C200090E1
:104DF000B4F91A102B46584609F06AFA6083024645
:104E000000231EE07A1917B210FB05F292FBF1F2B3
:104E100015B2002DF6D1ADF80070A4F81A806A46DC
:104E2000002120461FF00BF941F6FF72BDF900305A
:104E30005142584609F0F9FFBDF80010012308441B
:104E400002B200214CE09AE0A4F81A80BAF1000FF7
:104E50000AD0B4F91850002713F012FC0068494634
:104E6000407EC0F1640022E0208BC5F1640110FB9C
:104E700001F191FBF9F02083584616F087FB0546B7
:104E8000584616F0E3FB034603200090B4F91810CF
:104E90002A46584609F01CFA2083014600231EE0EA
:104EA0007A1917B210FB05F292FBF1F215B2002D40
:104EB000F6D1ADF80070A4F81880002269462046AB
:104EC0001FF0BDF841F6FF72BDF90030514258465F
:104ED00009F02AFFBDF800100123084401B20022A6
:104EE000584618F075FB208B002848D1608B0028AD
:104EF00045D1C6B9584616F013FC0546584616F07B
:104F0000CDFA002D06DC00280DDD002D02DA01238C
:104F10002A4604E0002806DA0123404202B20021BA
:104F2000584618F055FBBAF1000F19D1584616F043
:104F30002DFB0546584616F089FB002D07DC00289E
:104F40000EDD002D03DA01230022294605E00028AA
:104F500006DA01230022404201B2584618F038FB1D
:104F60000A215846019A12F06BFB6078800706D43C
:104F700014F83C0F20F00F00207044F8148CBDE8AA
:104F8000FC9F7FB50D46040003D110F00BF8040020
:104F900023D00026FDB1ADF80060ADF8026010F03E
:104FA00019F8401EADF80400204610F059F8401ED4
:104FB000ADF806006A46294602A8FEF761FF002800
:104FC0000BD02068017C890708D5DDE90001C4E920
:104FD0000D01012029E0A0F854617FBD82690AB16A
:104FE00002A9904700250AE004EBC501002202A8AF
:104FF0003431FEF76DFF0028EFD16D1CADB2B4F86F
:105000005401A842F0D880B2202804D204EBC0009A
:1050100002A9343004E0A4F8546104F13400694674
:105020000DF0C4FDB4F85401401CA4F854016068AC
:105030001BF034FC7FBD70B5054600F012F8044645
:105040000CE02146284600F01EF806462146284678
:1050500000F071F8204614F0F1FE3446002CF0D137
:1050600070BD002800D04068704700B5034600229C
:10507000FFF7F7FF03E01846521C00F004F80100A8
:10508000F9D1104600BD0068091D405870470068FE
:1050900040587047002800D0806870470022426066
:1050A000C91C21F0030182600160704770B504469D
:1050B0000068083014F038FE050013D001460022C5
:1050C00020461CF0CAFD2946204662681CF0BCFD43
:1050D000616819B12A4620461CF0BFFD6560A068D2
:1050E00000B9A560284670BD70B504460068083058
:1050F00014F01AFE050013D00146002220461CF0D1
:10510000A3FD29462046A2681CF0A7FDA16819B19D
:105110002A4620461CF098FDA560606800B96560CD
:10512000284670BD28B1416809B9806808B10020DF
:1051300070470120704770B504000DD0FFF791FF54
:1051400000228842204608D1FFF79DFF606010B121
:10515000002201461EE0A26070BDFFF79BFF88425F
:10516000206808440AD10168A16029B12046BDE841
:10517000704000221CF068BD626070BD056820466A
:10518000FFF781FF06460246294620461CF05CFDDB
:105190002A4631462046BDE870401CF05EBD10B581
:1051A0000446006882680AB121469047206800687A
:1051B000002801D02060F5E710BD8068002801D0EC
:1051C000B0F91600704700002DE9F047054690B091
:1051D000408C189C40F00400688490462A849946CC
:1051E0008A462289284617F09FF80646A5F820909F
:1051F00022895146284617F097F80746688CBE4228
:1052000020F00400688403D13104B1EB074F68D06B
:10521000A5F8208022895146284617F085F80646D1
:105220008046A5F82090514628460BF05CF921896C
:10523000006832461AF074F92089602823D147F6B5
:10524000FF794E4501D04F451DD1284617F09DF9F5
:1052500000EBD0704610284617F097F900EBD0709D
:105260004010C84506D1711C431C994200DA00E089
:10527000194688464F4506D1711C421C914201DAFD
:105280000F4600E017461948FFF710FF06002BD025
:105290003560C6E903872089B0806846C6F808A053
:1052A0000CF0A2FF1248FF21CDE9006011480290E6
:1052B0001148039000200790CDE9080120880A904A
:1052C00060889DF83E1040420B90E06806900020F8
:1052D00060F300018DF83E102069059068460CF0DF
:1052E000FBFF10B0BDE8F087FEE70000C8F2FF1F2B
:1052F0002164020011660200696502001421014860
:10530000FFF7CCBEC8F2FF1F2DE9F84F00249046EE
:1053100089460646254643F60F0A43F60E0B00E182
:105320000420F16800EBC500085881017ED480B2EA
:1053300030EA090112D0002130EA080010D0002024
:10534000814273D0F0686A4641F6100150F835701A
:10535000384619F0D3FE002869D103E00121EBE7BC
:105360000120EDE76A4641F61101384619F0C6FE04
:10537000002873D16A4641F61201384619F0BEFE84
:1053800000286BD16A4641F61301384619F0B6FE83
:10539000002863D16A4641F61501384619F0AEFE81
:1053A00000285BD16A4641F61401384619F0A6FE82
:1053B000E8BB6A4641F26901384619F09FFEB0BB6E
:1053C0006A4643F20C01384619F098FE78BB6A46EB
:1053D00043F20D01384619F091FE40BB6A4641F296
:1053E0000101384619F08AFE08BB6A4641F2040101
:1053F000384619F083FED0B96A4641F202013846B8
:1054000019F07CFE98B96A4641F20301384619F05A
:1054100075FE60B96A4641F20501384619F06EFE24
:1054200028B96A4641F20601384601E078E015E005
:1054300019F064FE90B96A4641F23201384619F01B
:105440005DFE58B96A465146384619F057FE28B9EC
:105450006A465946384619F051FE10B10320BDE89E
:10546000F88F6A4640F60A01384619F047FEE8BB55
:105470006A4640F60B01384619F040FEB0BB6A465A
:105480005146384619F03AFE80BB6A4659463846BE
:1054900019F034FE50BB6A4640F63C01384619F01C
:1054A0002DFE18BB6A4640F63D01384619F026FE2F
:1054B000E0B96A4640F63A01384619F01FFEA8B92D
:1054C0006A464FF40461384619F018FE70B96A460E
:1054D00040F64501384619F011FE38B96A4640F6E3
:1054E0004101384619F00AFE00B900E014E06A46AE
:1054F00040F64201384619F001FE68B96A4640F6A6
:105500004301384619F0FAFD30B96A4640F64901C0
:10551000384619F0F3FD08B1022401E004B9012472
:105520006D1C708CC0F3C500A8423FF6F9AE204652
:1055300095E7000001484068704700000082FF1FA7
:105540007047C0F30410072800D9072070470000F7
:1055500010B518210348FFF7A1FD03490120087089
:1055600010BD000074F2FF1F5482FF1F2DE9F041AF
:1055700090460D46040016D0FBF704F829460B4D63
:1055800006462046AA6890470746AA68E0194146A1
:10559000904701463846721A03E04318E35C2354EF
:1055A000401C8242F9D2BDE8F08100006882FF1FF2
:1055B0002DE9F041094C90460E4662681D460746AB
:1055C00019469047306020B128686268384400214D
:1055D0009047C8F80000BDE8F08100006882FF1F16
:1055E0002DE9F04788B01D46109E9246894604007A
:1055F0000AD02078002808D0B9F1000F04D016F0A6
:10560000060F10D0002004E0002008B0BDE8F087AD
:10561000401C215C0A2904D00D2902D00029F7D1B1
:10562000F3E7401CF1E7B00701D541F6FF7500270D
:105630008DF81070DFF88080059720E005980697B8
:1056400028B30021039104AA06AB0096CDE90132EC
:1056500020442B46524649461BF08AFA0699691A9D
:105660000DB2B0B105990844059021780A290BD0F4
:105670000D2909D0205C0A2813D00D2811D00598D7
:10568000205C08B1002DD9DC059870B112E0012131
:10569000D8E7059870B9D8F8042005A920469047A6
:1056A000F2E70598401C0590EEE7D8F8042005A91C
:1056B000204690470598A8E76882FF1F2DE9F04132
:1056C0001746884606001ED0002F1CD0FAF75AFF56
:1056D00004463846FAF756FF050014D00B4A2C440E
:1056E0004146926830469047411903E0621BB25C24
:1056F0003255641EA142F9D930442A463946BDE8E4
:10570000F04114F0A5BCBDE8F08100006882FF1FE5
:1057100000230278232902D0012A0DD00FE02AB1FC
:105720000021012A04D0022A04D008E0012101E06E
:10573000017004E0017001E0202902D00123184625
:1057400070470221F6E72DE9F0410B460F468046EF
:105750000246002108461BF051FC05460026401C6D
:1057600014F0E2FA040008D066553B464246691C34
:105770001BF044FC2046BDE8F081FEE72DE9F04730
:10578000984614460D468246DDF8209013E06608E0
:1057900006FB0857394650464A469047002808DD20
:1057A00044F30000C0EB540407EB0805A4F1010426
:1057B00001E005DA3446002CE9D12046BDE8F08747
:1057C0003846FBE72DE9F74F88B0894607460025A4
:1057D00000E06D1C785D202803D0092801D04D45DC
:1057E000F7D34FF0FF3B7DB31A48A8460026AD1D06
:1057F000DFF864A0046810E0062218A12068FAF718
:10580000DFFE48B9206842463946801DFAF7D8FEC7
:1058100010B92068405DC0B10C34DAF80000844251
:10582000EAD38EB120216846FAF7DBFD6A46494685
:1058300038461CF0EBF838B16946B0470A99086061
:1058400000200BB0BDE8F08F01E0A668E9E75846FC
:10585000F7E70000B480FF1FB880FF1F5F5F636D34
:10586000645F00002DE9FC5F0CAD9E4692468B46BE
:1058700095E81201DDE91132DDE90F7C96074FF062
:10588000300519D453B1D60708D002F00C0656EAF9
:10589000080603D05B1E01E00D55641C644504D26C
:1058A000202CF9D301E00D55641C5FEAC27903D0C6
:1058B0009C4201D2202CF6D3D60624D556050AD414
:1058C0004CB1644501D09C4205D1641E03D0102F19
:1058D00003D1641E04E0102F02D0022F0AD00EE084
:1058E000960603D4202C1ED2782606E0202C1AD24D
:1058F000582602E0202C16D262260E55641C202C5D
:1059000011D20D55641C202C0DD2B8F1000F01D01E
:105910002D2506E0550701D52B2502E0150702D5F8
:1059200020250D55641CCDE900EB064655468B46F7
:1059300098469146900713D1274606E02A46DDE9AE
:1059400000316D1C2020B0477F1C4745F6D307E08F
:105950002A466D1C641EDDE900311BF80400B047C7
:10596000002CF5D15FEA897006D409E02A46DDE90A
:1059700000316D1C2020B047A5EB0A014145F5D34D
:105980002846BDE8FC9F2DE9F04F8FB099468B4625
:10599000DDE91818DDE91C63DDE91A478646924601
:1059A000002009B923F010035A0507AD00D5C9B18D
:1059B000B1FBF4F204FB1212D2B20A2A01D2303245
:1059C00009E05FEA836C02D54FF0410C01E04FF033
:1059D000610C62440A3AB1FBF4F12A54401C09B14B
:1059E0002028E5D3CDF80880CDE90563CDE9005046
:1059F000CDE903474B46524659467046FFF732FF02
:105A00000FB0BDE8F08F2DE9FF4F8FB01CACDDE982
:105A1000239594E8030820AC94E8C004002450EADD
:105A2000010201D125F010056A050DF11C0802D50F
:105A300050EA010217D032463B46FAF759FCD2B27F
:105A40000A2A01D2303206E0AB0601D5412300E03C
:105A500061231A440A3A08F80420641C50EA01023F
:105A600001D0202CE7D3CDE90084CDF808B0CDE9F2
:105A70000595CDE9036A0FAF97E80F00FFF7F2FE37
:105A800013B0BDE8F08F9A4200D288547047704737
:105A90002DE9FF4F95B09A46884606460025EEE16F
:105AA000252877D100242746F94A0121039400E0F4
:105AB000044316F8013F203B01FA03F01042F7D1EE
:105AC00030782A2811D06FF02F033078A0F13002FF
:105AD000092A16D8039A44F0020402EB820203EB6F
